{
  "_format": "hh-sol-artifact-1",
  "contractName": "CryptoX",
  "sourceName": "contracts/CryptoX.sol",
  "abi": [
    {
      "anonymous": false,
      "inputs": [
        {
          "indexed": true,
          "internalType": "address",
          "name": "from",
          "type": "address"
        },
        {
          "indexed": true,
          "internalType": "address",
          "name": "to",
          "type": "address"
        },
        {
          "indexed": false,
          "internalType": "uint256",
          "name": "amount",
          "type": "uint256"
        }
      ],
      "name": "PaymentCreated",
      "type": "event"
    },
    {
      "anonymous": false,
      "inputs": [
        {
          "indexed": true,
          "internalType": "address",
          "name": "wallet",
          "type": "address"
        },
        {
          "indexed": false,
          "internalType": "string",
          "name": "name",
          "type": "string"
        }
      ],
      "name": "UserRegistered",
      "type": "event"
    },
    {
      "inputs": [
        {
          "internalType": "address",
          "name": "_to",
          "type": "address"
        },
        {
          "internalType": "uint256",
          "name": "_amount",
          "type": "uint256"
        }
      ],
      "name": "createPaymentRequest",
      "outputs": [],
      "stateMutability": "nonpayable",
      "type": "function"
    },
    {
      "inputs": [
        {
          "internalType": "address",
          "name": "_user",
          "type": "address"
        }
      ],
      "name": "getPaymentRequests",
      "outputs": [
        {
          "components": [
            {
              "internalType": "address",
              "name": "fromAddress",
              "type": "address"
            },
            {
              "internalType": "address",
              "name": "toAddress",
              "type": "address"
            },
            {
              "internalType": "uint256",
              "name": "amount",
              "type": "uint256"
            },
            {
              "internalType": "string",
              "name": "status",
              "type": "string"
            },
            {
              "internalType": "uint256",
              "name": "createdAt",
              "type": "uint256"
            }
          ],
          "internalType": "struct CryptoX.PaymentRequest[]",
          "name": "",
          "type": "tuple[]"
        }
      ],
      "stateMutability": "view",
      "type": "function"
    },
    {
      "inputs": [
        {
          "internalType": "string",
          "name": "_phone",
          "type": "string"
        }
      ],
      "name": "getUser",
      "outputs": [
        {
          "internalType": "address",
          "name": "",
          "type": "address"
        },
        {
          "internalType": "string",
          "name": "",
          "type": "string"
        },
        {
          "internalType": "string",
          "name": "",
          "type": "string"
        },
        {
          "internalType": "bool",
          "name": "",
          "type": "bool"
        }
      ],
      "stateMutability": "view",
      "type": "function"
    },
    {
      "inputs": [
        {
          "internalType": "string",
          "name": "_phone",
          "type": "string"
        },
        {
          "internalType": "string",
          "name": "_name",
          "type": "string"
        },
        {
          "internalType": "address",
          "name": "_wallet",
          "type": "address"
        },
        {
          "internalType": "string",
          "name": "_encryptedPrivateKey",
          "type": "string"
        }
      ],
      "name": "registerUser",
      "outputs": [],
      "stateMutability": "nonpayable",
      "type": "function"
    }
  ],
  "bytecode": "0x608060405234801561001057600080fd5b5061115a806100206000396000f3fe608060405234801561001057600080fd5b506004361061004c5760003560e01c806331feb671146100515780637431eceb14610084578063a928c1bc146100b4578063c45dd7dd146100d0575b600080fd5b61006b60048036038101906100669190610aec565b6100ec565b60405161007b9493929190610c19565b60405180910390f35b61009e60048036038101906100999190610c98565b610302565b6040516100ab9190610e6f565b60405180910390f35b6100ce60048036038101906100c99190610ebd565b6104f2565b005b6100ea60048036038101906100e59190610efd565b61070c565b005b6000606080600080856040516020016101059190610ff4565b60405160208183030381529060405280519060200120905060008060008381526020019081526020016000206040518060a00160405290816000820160009054906101000a900473ffffffffffffffffffffffffffffffffffffffff1673ffffffffffffffffffffffffffffffffffffffff1673ffffffffffffffffffffffffffffffffffffffff168152602001600182015481526020016002820180546101ac9061103a565b80601f01602080910402602001604051908101604052809291908181526020018280546101d89061103a565b80156102255780601f106101fa57610100808354040283529160200191610225565b820191906000526020600020905b81548152906001019060200180831161020857829003601f168201915b5050505050815260200160038201805461023e9061103a565b80601f016020809104026020016040519081016040528092919081815260200182805461026a9061103a565b80156102b75780601f1061028c576101008083540402835291602001916102b7565b820191906000526020600020905b81548152906001019060200180831161029a57829003601f168201915b505050505081526020016004820160009054906101000a900460ff16151515158152505090508060000151816040015182606001518360800151955095509550955050509193509193565b6060600160008373ffffffffffffffffffffffffffffffffffffffff1673ffffffffffffffffffffffffffffffffffffffff168152602001908152602001600020805480602002602001604051908101604052809291908181526020016000905b828210156104e757838290600052602060002090600502016040518060a00160405290816000820160009054906101000a900473ffffffffffffffffffffffffffffffffffffffff1673ffffffffffffffffffffffffffffffffffffffff1673ffffffffffffffffffffffffffffffffffffffff1681526020016001820160009054906101000a900473ffffffffffffffffffffffffffffffffffffffff1673ffffffffffffffffffffffffffffffffffffffff1673ffffffffffffffffffffffffffffffffffffffff1681526020016002820154815260200160038201805461044c9061103a565b80601f01602080910402602001604051908101604052809291908181526020018280546104789061103a565b80156104c55780601f1061049a576101008083540402835291602001916104c5565b820191906000526020600020905b8154815290600101906020018083116104a857829003601f168201915b5050505050815260200160048201548152505081526020019060010190610363565b505050509050919050565b600160003373ffffffffffffffffffffffffffffffffffffffff1673ffffffffffffffffffffffffffffffffffffffff1681526020019081526020016000206040518060a001604052803373ffffffffffffffffffffffffffffffffffffffff1681526020018473ffffffffffffffffffffffffffffffffffffffff1681526020018381526020016040518060400160405280600781526020017f50454e44494e4700000000000000000000000000000000000000000000000000815250815260200142815250908060018154018082558091505060019003906000526020600020906005020160009091909190915060008201518160000160006101000a81548173ffffffffffffffffffffffffffffffffffffffff021916908373ffffffffffffffffffffffffffffffffffffffff16021790555060208201518160010160006101000a81548173ffffffffffffffffffffffffffffffffffffffff021916908373ffffffffffffffffffffffffffffffffffffffff1602179055506040820151816002015560608201518160030190805190602001906106969291906108ef565b506080820151816004015550508173ffffffffffffffffffffffffffffffffffffffff163373ffffffffffffffffffffffffffffffffffffffff167f5224da1881e8f7e11d5141ff8a8ec931c1d2e711cfeec7f587372fb01d0cc42b83604051610700919061107b565b60405180910390a35050565b60008460405160200161071f9190610ff4565b60405160208183030381529060405280519060200120905060008082815260200190815260200160002060040160009054906101000a900460ff161561079a576040517f08c379a0000000000000000000000000000000000000000000000000000000008152600401610791906110e2565b60405180910390fd5b6040518060a001604052808473ffffffffffffffffffffffffffffffffffffffff1681526020018281526020018581526020018381526020016001151581525060008083815260200190815260200160002060008201518160000160006101000a81548173ffffffffffffffffffffffffffffffffffffffff021916908373ffffffffffffffffffffffffffffffffffffffff1602179055506020820151816001015560408201518160020190805190602001906108599291906108ef565b5060608201518160030190805190602001906108769291906108ef565b5060808201518160040160006101000a81548160ff0219169083151502179055509050508273ffffffffffffffffffffffffffffffffffffffff167f48cac28ad4dc618e15f4c2dd5e97751182f166de97b25618318b2112aa951a2f856040516108e09190611102565b60405180910390a25050505050565b8280546108fb9061103a565b90600052602060002090601f01602090048101928261091d5760008555610964565b82601f1061093657805160ff1916838001178555610964565b82800160010185558215610964579182015b82811115610963578251825591602001919060010190610948565b5b5090506109719190610975565b5090565b5b8082111561098e576000816000905550600101610976565b5090565b6000604051905090565b600080fd5b600080fd5b600080fd5b600080fd5b6000601f19601f8301169050919050565b7f4e487b7100000000000000000000000000000000000000000000000000000000600052604160045260246000fd5b6109f9826109b0565b810181811067ffffffffffffffff82111715610a1857610a176109c1565b5b80604052505050565b6000610a2b610992565b9050610a3782826109f0565b919050565b600067ffffffffffffffff821115610a5757610a566109c1565b5b610a60826109b0565b9050602081019050919050565b82818337600083830152505050565b6000610a8f610a8a84610a3c565b610a21565b905082815260208101848484011115610aab57610aaa6109ab565b5b610ab6848285610a6d565b509392505050565b600082601f830112610ad357610ad26109a6565b5b8135610ae3848260208601610a7c565b91505092915050565b600060208284031215610b0257610b0161099c565b5b600082013567ffffffffffffffff811115610b2057610b1f6109a1565b5b610b2c84828501610abe565b91505092915050565b600073ffffffffffffffffffffffffffffffffffffffff82169050919050565b6000610b6082610b35565b9050919050565b610b7081610b55565b82525050565b600081519050919050565b600082825260208201905092915050565b60005b83811015610bb0578082015181840152602081019050610b95565b83811115610bbf576000848401525b50505050565b6000610bd082610b76565b610bda8185610b81565b9350610bea818560208601610b92565b610bf3816109b0565b840191505092915050565b60008115159050919050565b610c1381610bfe565b82525050565b6000608082019050610c2e6000830187610b67565b8181036020830152610c408186610bc5565b90508181036040830152610c548185610bc5565b9050610c636060830184610c0a565b95945050505050565b610c7581610b55565b8114610c8057600080fd5b50565b600081359050610c9281610c6c565b92915050565b600060208284031215610cae57610cad61099c565b5b6000610cbc84828501610c83565b91505092915050565b600081519050919050565b600082825260208201905092915050565b6000819050602082019050919050565b610cfa81610b55565b82525050565b6000819050919050565b610d1381610d00565b82525050565b600082825260208201905092915050565b6000610d3582610b76565b610d3f8185610d19565b9350610d4f818560208601610b92565b610d58816109b0565b840191505092915050565b600060a083016000830151610d7b6000860182610cf1565b506020830151610d8e6020860182610cf1565b506040830151610da16040860182610d0a565b5060608301518482036060860152610db98282610d2a565b9150506080830151610dce6080860182610d0a565b508091505092915050565b6000610de58383610d63565b905092915050565b6000602082019050919050565b6000610e0582610cc5565b610e0f8185610cd0565b935083602082028501610e2185610ce1565b8060005b85811015610e5d5784840389528151610e3e8582610dd9565b9450610e4983610ded565b925060208a01995050600181019050610e25565b50829750879550505050505092915050565b60006020820190508181036000830152610e898184610dfa565b905092915050565b610e9a81610d00565b8114610ea557600080fd5b50565b600081359050610eb781610e91565b92915050565b60008060408385031215610ed457610ed361099c565b5b6000610ee285828601610c83565b9250506020610ef385828601610ea8565b9150509250929050565b60008060008060808587031215610f1757610f1661099c565b5b600085013567ffffffffffffffff811115610f3557610f346109a1565b5b610f4187828801610abe565b945050602085013567ffffffffffffffff811115610f6257610f616109a1565b5b610f6e87828801610abe565b9350506040610f7f87828801610c83565b925050606085013567ffffffffffffffff811115610fa057610f9f6109a1565b5b610fac87828801610abe565b91505092959194509250565b600081905092915050565b6000610fce82610b76565b610fd88185610fb8565b9350610fe8818560208601610b92565b80840191505092915050565b60006110008284610fc3565b915081905092915050565b7f4e487b7100000000000000000000000000000000000000000000000000000000600052602260045260246000fd5b6000600282049050600182168061105257607f821691505b602082108114156110665761106561100b565b5b50919050565b61107581610d00565b82525050565b6000602082019050611090600083018461106c565b92915050565b7f5573657220616c72656164792065786973747300000000000000000000000000600082015250565b60006110cc601383610b81565b91506110d782611096565b602082019050919050565b600060208201905081810360008301526110fb816110bf565b9050919050565b6000602082019050818103600083015261111c8184610bc5565b90509291505056fea2646970667358221220b44bf51edc15f3bb53c9ebd8bf96725f243ea514ca0d06553c56b0c901b4cfdc64736f6c63430008090033",
  "linkReferences": {},
  "deployedLinkReferences": {}
}